:10000000081003009D830200598202005D820200F5
:10001000B5830200B9830200BD8302000000000026
:10002000000000000000000000000000C18302008A
:10003000C58302000000000029CE00004725020011
:100040000000000000000000C983020011820200CD
:100050004D1C010000000000000000000000000036
:100060000000000000000000A58302000000000066
:100070000000000000000000B92E01000000000098
:100080009F2F0100E12F0100A97F0200A97F02003C
:10009000E57E0200000000000000000000000000FB
:1000A00070B500224FF41261DFF8140B02F002F970
:1000B000DFF8104B0022102104F11C0002F0FAF8C6
:1000C000DFF8045B0022182105F10C0002F0F2F8C1
:1000D0000022082104F12C0002F0ECF80022082193
:1000E00004F1340002F0E6F80020E063206460646C
:1000F000A0646862A862E862DFF8D06AB063F06367
:10010000E0642863306470646863A863E863012076
:1001100028640020B064F0644FF0FF306864A86485
:100120000020E864306520657065F06530667066B3
:10013000B066F06202462C21304602F0BBF842F273
:1001400010707081B081002070600220308100202A
:10015000306002460C21204602F0ACF8DFF8700A4D
:100160006060DFF8700A2060012020720020287093
:1001700028656880A880E8806065F0662881A065B1
:1001800030636865A8656066A066E0667067306782
:1001900068662866E86501202867E866A86600208A
:1001A000E867A86768670620B0860020A082F0672D
:1001B000B0672067DFF8200AE06500202066012094
:1001C000E082962068810620F0860C2020830020A3
:1001D000B06502464021DFF85C0D02F06BF80022AA
:1001E000062104F10C00BDE8704002F063B810B5C0
:1001F00084B0DFF8D0490C22214600A802F098F81C
:10020000FFF74EFF0C2200A9204602F091F81FBD17
:100210002DE9F0472DED0C8B90B00024254600A869
:1002200021460A460B460EC0302102F0B9F89FED78
:100230009B8ADFF8906996ED1B0AD6ED140AC6ED8D
:100240001B0ADFF8887997ED149A86ED149ADFF887
:10025000788998ED131AB8EE411ADFED911AC1EEC4
:10026000819AC7ED149AD8F84420D8F83490A9EBB5
:100270000200FA30FA21B0FBF1F1FA2303FB11007E
:1002800080B2002800F0FE834C2880F28180D8F8EC
:10029000401001297CD0D7F84CA0BAF1040F21D32B
:1002A000F4EE490AF1EE10FA1CD5B4EE699AF1EEBB
:1002B00010FA17D59FED7B1A20EE811AB4EE691A59
:1002C000F1EE10FA0ED59FEDDB1AF4EE419AF1EE45
:1002D00010FA07DB87ED149AC6ED140A86ED1B0AA7
:1002E00000F009BC97ED0EAA87ED0FAAD7ED10AA72
:1002F000C7ED11AA014600EE101AB8EE400AD8ED7B
:100300000B8AC8EE800A98ED0C1A81EE001A21467D
:10031000B963396420E0521C92B2FA2A00D1224615
:10032000DFF89C3803EB8203D3ED231A71EEE01A59
:10033000D3F8743402EE103A32EE412AD7ED0E2A89
:1003400041EEA12AC7ED0E2AD7ED101A42EE021A8D
:10035000C7ED101A491C89B28142DCDBD7ED0E0AC9
:1003600080EE80BA87ED0EBAD7ED100A80EE80CA13
:1003700087ED10CAD6ED1ABA98ED150AD8ED160A0F
:1003800070EE60CAC6ED1ACA00F092FF012802D1D1
:100390002046386376E3BAF1000F0BD1388E05287A
:1003A00002DB054620463886788E052802DB451993
:1003B000204678861AFA85F0002824D1B6EE00DAB5
:1003C0003CEE2A0A20EE0D0ADFED9B0AB4EE600A2D
:1003D000F1EE10FA11D43BEE0A0A20EE0D0ADFED21
:1003E000970AB4EE600AF1EE10FA06D4B3EE040AEE
:1003F000F4EE40CAF1EE10FA05D5388E401C38866E
:10040000C8F848903EE3388E002802D045192046AF
:1004100038861AFA85F0002815D1B7EE000AF4EEF6
:10042000409AF1EE10FA00F12D839FED850AF4EE6B
:10043000409AF1EE10FA03DB788E401C788621E3B7
:100440002046788603E0788E45192046788628462F
:1004500080B200F0C3FF012808D187ED149AC7EDE0
:1004600010AAC6ED1ABA87ED0EAA0BE39FED750A26
:10047000F4EE409AF1EE10FA02DBDFF8180C386562
:1004800020463886BAF1000F0ED1386D786586EDBA
:1004900013BAC6ED19CA00F0A5FE3CE0000000004A
:1004A00000007A446666E63FB6EE00DA00F09AFE97
:1004B000012816D197ED140AF0EE000A20EE200A6A
:1004C00087ED140A6BEE0D0AC7ED0E0A2CEE0D1A1D
:1004D00087ED101AC7ED0F0A87ED111A86ED140A81
:1004E0006D1C97ED140AD6ED140A30EE200A20EEAA
:1004F0000D0A87ED150A97ED0E0AD7ED0F0A30EEBB
:10050000200A20EE0D0A86ED130A3BEEAC0A20EE1F
:100510000D0A86ED190A98F80100012840F0A7821B
:10052000D8F80C00009000A8D8F810104160D8F856
:1005300014108160214617E000AB03EB820393EDBA
:10054000010A50F822C000EE90CAB4EE600AF1EE43
:1005500010FA05D500EB820C8CED000AC3ED010A00
:10056000521C022AE8DB491C022901DA2246F8E77C
:100570009DED000AB5EE400AF1EE10FA2AD5B5EE6F
:10058000400AF1EE10FA01DCB1EE400AD0ED020AA9
:1005900030EE800A80ED020A9DED000AB5EE400AB9
:1005A000F1EE10FA01DCB1EE400AD0ED010A30EEB6
:1005B000800A80ED010A9DED000AB5EE400AF1EED9
:1005C00010FA01DCB1EE400ADDED000A30EE800ADF
:1005D0008DED000A90ED010AD0ED020A30EEC01A4E
:1005E000DDED000A30EE600AB4EE401AF1EE10FACA
:1005F00005D5F0EE410AB0EE401AB0EE600AD6ED35
:100600000B0AC6ED0C0A31EE400A80EE010A9FED9E
:100610000E1A20EE010A86ED0B0A706BB063F4EE41
:10062000400AF1EE10FA11D570EE600AC6ED0D0A1F
:1006300010E000BF01004040000016430000A0424F
:10064000666616400100A0400000C84270EEC00A75
:10065000C6ED0D0A386F796F081800EBD0704010A6
:1006600002EE100A86ED0F2AC6ED108AD7ED100AA9
:10067000C6ED110AD7ED141ADFF8300CC0EDC41A1C
:1006800096ED121A31EE611AD6ED122A72EEE12AB7
:1006900021EE221A00F5447181ED011AC6ED121AFD
:1006A000D7ED1B1AC1ED021AD8F81810039103A94F
:1006B000C1ED011AC1ED020AC1ED038AC1ED041AB0
:1006C000C1ED058AC1ED061AB8EEC22A81ED072AEE
:1006D000C1ED081A81ED090AC1ED0A1A81ED0B1A64
:1006E000DDED032A9FEDD03A62EE832A9FEDCF3AEB
:1006F00041EE832A9FEDCE3A20EE833ADFEDCD3AEC
:1007000008EEA33ADFEDCC3A61EEA33A9FEDCB4A77
:1007100048EE843A9FEDCA4A21EE844ADFEDC94A89
:1007200002EE244ADFEDC84A61EEA44A9FEDC75AA3
:1007300040EE054A9FEDC65A21EE855ADFEDC55AB7
:1007400001EE255AF8EE085AF4EE652AF1EE10FA99
:1007500000F18D81DFEDC05AB4EE653AF1EE10FA8A
:1007600000F18581DFEDBD5AF4EE653AF1EE10FA45
:1007700000F17D81DFEDBA5AB4EE654AF1EE10FA70
:1007800000F175819FEDDF6AF4EE464AF1EE10FA52
:1007900000F16D819FEDDC6AB4EE465AF1EE10FA7D
:1007A00000F16581DFEDD96AF4EE662AF1EE10FA08
:1007B000C0F25D81DFEDD62AB4EE623AF1EE10FAB6
:1007C000C0F25581F4EE653AF1EE10FAC0F24F81B5
:1007D000B4EE464AF1EE10FAC0F24981F4EE654AF1
:1007E000F1EE10FAC0F24381DFEDCA2AB4EE625A8C
:1007F000F1EE10FAC0F23B81DFEDC72A9DED033A1E
:10080000B4EE623AF1EE10FA01D5CDED032ADDED3A
:10081000032A9FEDD83AF4EE432AF1EE10FA02DBF8
:10082000DFF8AC2B0392DFEDD42AF4EE621AF1EE7E
:1008300010FA01D5C1ED012A9FEDB83ADFEDB83AC3
:1008400091ED014AB4EE634AF1EE10FA01DB81ED5D
:10085000013A9FEDB44AF4EE440AF1EE10FA01D5E4
:1008600081ED024AD1ED020A9FEDAF4AF4EE440A4F
:10087000F1EE10FA02DBDFF85C2B8A60DFEDBF0AD5
:10088000F4EE608AF1EE10FA01D5C1ED030A9FED96
:10089000BC4AD1ED034AF4EE444AF1EE10FA02DB11
:1008A000DFF8342BCA60F4EE621AF1EE10FA01D5CB
:1008B000C1ED042AD1ED044AF4EE634AF1EE10FAD8
:1008C00001DB81ED043AF4EE608AF1EE10FA01D515
:1008D000C1ED050AD1ED050AF4EE440AF1EE10FA75
:1008E00002DBDFF8F42A4A61F4EE621AF1EE10FA44
:1008F00001D5C1ED062AD1ED060AF4EE630AF1EE48
:1009000010FA01DB81ED063AF1EE000AB4EE602A3E
:10091000F1EE10FA02D54FF08142CA61D1ED070A1B
:100920009FEDA12AF4EE420AF1EE10FA02DBDFF8A5
:100930002C2CCA61F4EE621AF1EE10FA01D5C1ED69
:10094000082AD1ED080AF4EE630AF1EE10FA01DB91
:1009500081ED083ADFED950AB4EE600AF1EE10FA87
:1009600001D5C1ED090A91ED090ADFED910AB4EE56
:10097000600AF1EE10FA02DBDFF8E42B4A62F4EED3
:10098000621AF1EE10FA01D5C1ED0A2A91ED0A0AB8
:10099000B4EE630AF1EE10FA01DB81ED0A3AB5EE2E
:1009A000401AF1EE10FA01D52246CA6291ED0B0A07
:1009B000DFED800AB4EE600AF1EE10FA02DBDFF838
:1009C000A42BCA62214612E01B1FD3ED000A92ED50
:1009D000031AF4EE410AF1EE10FA01D59FED760A02
:1009E000B8EEC00AD2ED020A00EE208A491C312975
:1009F00038DA9FED720A0B011A18D2F804C0BCF164
:100A0000010F0DF10C0C1B580CEB8303DCD11B1FE9
:100A1000D3ED000A92ED031AF4EE410AF1EE10FA5A
:100A2000DEDB9FED650ADBE7168733BDB0568DBD73
:100A300003275BB9E23C9CB9983115BEBF49D3B9D5
:100A40007061FDBD55C128BC36CB05BE3D7FDABB0C
:100A5000DDED0ABEE4BE353E6666A6BF3333F3BFA6
:100A6000CDCC4CBFB5EE408AF1EE10FA0ADC97ED22
:100A7000150A284680B200F0B1F800F057F8044695
:100A8000C8F84890C8F844900020C8F84C00C8F84E
:100A90002C00C8F83000C8F840000246102106F1CA
:100AA0001C0001F007FC00220C2108F10C0001F0F1
:100AB0007BFC4948F06500203066F88800281AD190
:100AC000F86F00280CD0B86C3969401AB98EB0EBB9
:100AD000510F02DB002038810DE0012038810AE04F
:100AE000388E798E11FA80F0032802DB01203881DC
:100AF00001E002203881204610B0BDEC0C8BBDE82F
:100B0000F08700BFCDCC8CBF333333BFCDCC0CC00E
:100B10009A9919BFCDCC4CBE5017C93F15E6684015
:100B200016E668407D90A341A2F2924438B50025B4
:100B3000DFF8BC4B0120E06700F0F0FC2060E06CC7
:100B4000A18E884214D3A06C2061A08DA080E08D7E
:100B5000E080A06DA061E06DE061206E2062606EBB
:100B60006062A06EA0620120A0672846E0670125B0
:100B7000284632BDC9AC4542A9F56E3EBA9F17441E
:100B80003564EC441148016981640021C16441600D
:100B9000022101810021C162016A0166816A8166C8
:100BA0000021C16770470000010058427B4D4F3D56
:100BB00047FFC742BEBA984101000000FFFFFFFF98
:100BC000EC450300C83A03004C390300CC3903005C
:100BD00000002F430000704200007A442DE9F84FD6
:100BE0002DED048B82B08346F0EE400A00239E4632
:100BF0001846DFF8FC4AE56C05F10F0101F00F0122
:100C0000EA1D02F007020092CA4A02EB8106C6ED15
:100C1000000ABBF1000F15D0064611E04F1EBF1BA6
:100C200010374FEAE70C07EB1C7C4FEA2C1CB7EBA4
:100C30000C1703D402EB8707C7ED000A761C36B207
:100C40005E45EBDB102D02D2294609B200E00F21F0
:100C50009FEDB68A9FEDB51ADFEDB51A06461BE08B
:100C600052F8217000EE107AB5EE400AF1EE10FA5B
:100C700010DD38EE008AB4EE401AF1EE10FA01D51C
:100C8000B0EE401AB4EE610AF1EE10FA01D5F0EEC2
:100C9000401A761C491E09B20029E1D536B2314608
:100CA00003290BDB38EE410A30EE610A891E01EEA2
:100CB000101AB8EEC11A80EE018A07E0012905DB9F
:100CC00000EE106AB8EEC00A88EE008AB5EE408ADF
:100CD000F1EE10FA01D0002E01D1B0EE608A84ED61
:100CE000168A9FED950AB4EE408AF1EE10FA02D50D
:100CF000B0EE408A08E09FED910AB4EE408AF1EE32
:100D000010FA01DBB1EE028AB0EE040AB4EE408ABA
:100D1000F1EE10FA08D494ED1B0AF0EE080AB4EED6
:100D2000600AF1EE10FA02D50321A18501E0042149
:100D3000A185A66C06F00708DFF8BC7908EB070C64
:100D4000A18D8CF8B818BBF1000F0AD0721E02F00A
:100D50000702D21906F00709B94499F8B89882F841
:100D6000B89808220EE0B9F1040F00D1401CA8F198
:100D700001080FFA88F8B8F1000F01D508F108084A
:100D8000521E12B2012A16DB0FFA88F808EB070987
:100D900099F9B898B9F1030F02D10EF1010E03E0F1
:100DA000B9F1040F00D15B1C062AE0DBB9F1030F97
:100DB000D9D1401EDBE7E28D9BB21FFA8EFE734550
:100DC00007D39E4502D20420E0850DE000B2002842
:100DD00002D50320E08507E0012802DB0420E0853E
:100DE00002E09CF9B808E085B4F82E80B8F1040F51
:100DF00001D1184600E07046424509D0002020810C
:100E0000E088002820D1042D1ED3012020811BE082
:100E100013FA8EF2012A15DB052A10DB00EE102AE8
:100E2000B8EEC00AF6EE080A20EE200A00EE900A9C
:100E3000F8EE600AF4EE400AF1EE10FA02D5012055
:100E4000208101E002202081DFF8B09849B2B0EEA5
:100E5000480A484600F020F9DFED8D0AB4EE600A3A
:100E6000F1EE10FA01D5B0EE600A84ED170A58468B
:100E700000F1010A00EE90AAF8EEE08AD4ED180A1B
:100E800048EE800AC4ED180A9FEDCB9A20EE080ABE
:100E900020EE090A009907EB810101F65C0181ED62
:100EA000000ABBF1000F16D0002212E00099491E83
:100EB000891A08318B1001EB5373DB10B1EBC301BE
:100EC00005D407EB810101F65C0181ED000A521C9B
:100ED00012B28242EADB082D02D2284600B203E0B9
:100EE000072001E0401E00B20028FBD584ED190A5E
:100EF000414649B2484600F047F968EE090AB7EEA4
:100F0000001AC1EE200A20EE800AD4ED1A0A48EE3B
:100F1000800AC4ED1A0A0AEB0600A0640AEB050079
:100F2000E06402B0BDEC048BBDE8F18F000000006E
:100F30000000C84244A903006666A63F0100904035
:100F400049B2032944D1DFED9D0AB4EE600AF1EE07
:100F500010FA01DBB0EE600A9FED991ADFED990AF5
:100F600040EE010A90ED011A9FED970AB4EE401A87
:100F7000F1EE10FA43DADFED951AB4EE611AF1EEF4
:100F800010FA74DBB4EE401AF1EE10FA6FD59FED53
:100F9000900A31EE000ADFED8F1A60EE211A9FED04
:100FA0008E0A9FED8E2A01EE002A22EE200A20EE04
:100FB000210A9FEDB72ADFEDB72A41EE022A62EE41
:100FC000A00AB7EE001A31EE611A00EE810A56E06F
:100FD000DFED830A60EE200A60EE800A9FEDAE1A14
:100FE00040EE410A9FEDAD0A70EE800A90ED011AC5
:100FF0009FED750AB4EE401AF1EE10FA0ADB90ED9F
:10100000010A9FED751ADFED751A40EE011A21EE07
:10101000A00A34E0DFED6D1AB4EE611AF1EE10FAB9
:1010200025DBB4EE401AF1EE10FA20D59FED680AE8
:1010300031EE000ADFED671A60EE211A9FED660AB5
:101040009FED662A01EE002A22EE200A20EE210AF8
:101050009FED8F2ADFED8F2A41EE022A62EEA00A71
:10106000B7EE001A31EE611A00EE810A07E090ED4A
:10107000010A20EE800ADFED8A0A20EE200A007ABB
:10108000022803D1DFEDCA0A20EE200A70470000D3
:10109000CDCC4C3E0000A04010B52DED028BB0EE43
:1010A000408A0C46DFED7F8A49B2FFF749FF64B200
:1010B000042C31D1DFED7C0AB4EE608AF1EE10FA37
:1010C00016DBB1EE021AB4EE418AF1EE10FA0FD53A
:1010D000DFEDB80A78EE200AB1EE041A60EE810A5C
:1010E000FCEEE00A10EE900AC01D08EE900A3DE00A
:1010F000B4EE608AF1EE10FA03D5072008EE900AEC
:1011000034E0F1EE020AB4EE608AF1EE10FA2DDB63
:10111000122008EE900A29E0F7EE080AB4EE608A81
:10112000F1EE10FA11DBDFEDA40AB4EE608AF1EE05
:1011300010FA0AD5FFEE080A78EE200AB1EE041A7A
:1011400060EE810AFCEEE08A10E0F7EE080AB4EEE9
:10115000608AF1EE10FA09D4DFED970AB4EE608AE6
:10116000F1EE10FA02DB062008EE900ADFF8580DC7
:1011700018EE901A00EB8100D0ED000A20EE200A54
:10118000BDEC028B10BD0000F0EE0C0A49B2042940
:1011900004D19FED8A1A40EE010A03E09FED881A00
:1011A00040EE010A9FEDDB0A20EE800AD0ED000A36
:1011B00020EE200A70470000000070429A99194002
:1011C0006ADEF13D8638163F00002A4300001643D0
:1011D000000016C3CDCC4C3D4260E53A6666263F22
:1011E0002575C23E0020DFF8081591ED140AF7EED0
:1011F000040AB4EE600AF1EE10FA47DADFF8CC2CFC
:10120000D288042A42DAD1ED150A9FED6E1A60EEFB
:10121000810AB4EE600AF1EE10FA03D5022A01DB6E
:10122000012012E0DFF8D41491ED0A0ADFED660A1E
:10123000B4EE600AF1EE10FA07DBDFED640AB4EEFB
:10124000600AF1EE10FA00D5012001281ED1DFF866
:10125000AC1491ED170AD1ED180A70EEC00A9FED9B
:10126000AE1AF4EE410AF1EE10FA07DBF7EE080AC7
:10127000B4EE600AF1EE10FA00D50020DFEDB30AFB
:10128000B4EE600AF1EE10FA00D5002070470000BD
:1012900052491D3BB81E053F7593E83F24975340C4
:1012A000C1C0C03B00000000666606400830030075
:1012B0000021DFF83C24D38D032B1BDA92ED140AB6
:1012C000DFEDA30AB4EE600AF1EE10FA12DB92ED44
:1012D0000E0AF2EE040AB4EE600AF1EE10FA09D535
:1012E00092ED100ADFED9B0AB4EE600AF1EE10FAFF
:1012F00000D5012192ED100AF6EE000A92ED111AC6
:1013000030EE011A21EE201AF3EE0E1AB4EE611A35
:10131000F1EE10FA1CD492ED0E1AD2ED0F1A71EE06
:10132000211A61EEA01AB2EE042AF4EE421AF1EE8E
:1013300010FA0DD4F3EE041AB4EE610AF1EE10FACD
:1013400006D4B1EE040AB4EE401AF1EE10FA00D55C
:10135000012192ED140A9FED801AB4EE410AF1EEDC
:1013600010FA23DBDFF8942392ED090A92ED0A1AB2
:1013700080EE010A9FEDA51AB4EE410AF1EE10FAD3
:1013800014DB00EE100AB8EE400A20EE200AD2ED7F
:10139000070AF4EE400AF1EE10FA07D5D2ED080A7A
:1013A000F4EE400AF1EE10FA00D50121084670472C
:1013B0003333733F666606C09A993940CDCC4C3EB4
:1013C000CDCCCC3D3333333F010020420000C84236
:1013D000C8AC4542A1F292443464EC440021C44AB2
:1013E000D36C13FA80F0022816D392ED140ADFEDC5
:1013F000880AB4EE600AF1EE10FA0DDB92ED110AE4
:10140000D2ED100A80EE200ADFED820AB4EE600A07
:10141000F1EE10FA00DB0121022818D39FED7E0ABD
:10142000D2ED110A92ED101AC0EE810AF4EE400AD4
:10143000F1EE10FA0BDBD2ED0F0A92ED0E1AC0EEB0
:10144000810AF4EE400AF1EE10FA00DB01210028D7
:101450000ED0AA4890ED190ADFED9E0A20EE200A70
:10146000D0ED1A0AF4EE400AF1EE10FA00D501218F
:1014700092ED140ADFED980AB4EE600AF1EE10FA6C
:1014800008DA92ED150ADFED950AB4EE600AF1EE86
:1014900010FA1ADB92ED100ADFED910AB4EE600A41
:1014A000F1EE10FA0DD492ED0E0ADFED8E0AB4EED5
:1014B000600AF1EE10FA04D4DFF8100AC08802289E
:1014C00003DBD08D032800DB01218C4890ED130A4B
:1014D000DFED830AB4EE600AF1EE10FA08D492ED63
:1014E0001B0AF1EE040AB4EE600AF1EE10FA0ED512
:1014F000106F526F101800EE100ABAEEEF0ADFED0F
:101500007A0AB4EE600AF1EE10FA00DB0121084617
:10151000704700000AD7A33B0100C03F0020744978
:101520008A6C12F10A0F0FD29FED700AD1ED180AE2
:10153000F4EE400AF1EE10FA06DAD1ED1A0AF4EEF2
:10154000400AF1EE10FA00DB0120704785EB113FF5
:1015500001000040000020420100404000005842CD
:1015600046FFC742BDBA984110B401460020634A05
:10157000614BD3F8144900EE104AD1ED000AB4EEE5
:10158000600AF1EE10FA08D1147B641C1473E4B203
:10159000FE2C04DB3224147301E00446147303F6BA
:1015A000141393ED010AD1ED010AB4EE600AF1EED5
:1015B00010FA08D1547B641C5473E4B2FE2C04DB93
:1015C0003224547301E00446547393ED020AD1EDC2
:1015D000020AB4EE600AF1EE10FA08D1917B491CC0
:1015E0009173C9B2FE2904DB3221917301E00146F7
:1015F0009173117B322905DA517B322902DA917B12
:10160000322900DB012010BC704700003433333F27
:10161000010060400100A04001007041014600202F
:1016200091ED000AB5EE400AF1EE10FA01DCB1EEE0
:10163000400A324ADFED2F0AB4EE600AF1EE10FAEA
:1016400008DBD37B5B1CD373DBB2FE2B04DB3223C2
:10165000D37301E00346D37391ED010AB5EE400A5E
:10166000F1EE10FA01DCB1EE400AB4EE600AF1EEE0
:1016700010FA08DB137C5B1C1374DBB2FE2B04DB5B
:101680003223137401E00346137491ED020AB5EEA0
:10169000400AF1EE10FA01DCB1EE400AB4EE600A45
:1016A000F1EE10FA08DB517C491C5174C9B2FE29D5
:1016B00004DB3221517401E001465174D17B32299F
:1016C00005DA117C322902DA517C322900DB012053
:1016D000704700009A99993E0100904001008040B7
:1016E0000000C8430000164301005C428096184B7E
:1016F000CC39030035336B41EC450300C83A030095
:101700002DE9F24F2DED048B84B004469FEDE58A60
:10171000DFEDE48A9FEDE39ADFF8405BE888ADF8FF
:101720000800A888ADF8020028898DF8000000277D
:101730003E462046FFF718FF01902046FFF76EFF58
:101740008246DFF888873046C8F85400C8F8580049
:10175000D8F86800DFF8089BD9F8141900EE101AC1
:10176000D4ED000A30EEC01A01EE900AF8EEE11A4C
:1017700021EE211AB5EE401AF1EE10FA1ED598EDC1
:101780001D1A70EE411AF5EE401AF1EE10FA01DC66
:1017900071EE401A9FEDC41AF4EE411AF1EE10FA00
:1017A00007DB296F491C2967D8F85C10491CC8F869
:1017B0005C1088ED1D0A4042C8F8680009F6141054
:1017C00090ED010AD8F86C1094ED011A31EE401A30
:1017D00001EE901AF8EEE11A21EE211AB5EE401A48
:1017E000F1EE10FA1ED598ED1E1A70EE411AF5EEC4
:1017F000401AF1EE10FA01DC71EE401A9FEDAA1AC0
:10180000F4EE411AF1EE10FA07DB2A6F521C2A6738
:10181000D8F86020521CC8F8602088ED1E0A4942A2
:10182000C8F86C1090ED020AD8F8700094ED021A16
:1018300031EE401A01EE900AF8EEE11A21EE211A7B
:10184000B5EE401AF1EE10FA1ED598ED1F1A70EEA3
:10185000411AF5EE401AF1EE10FA01DC71EE401A71
:101860009FED911AF4EE411AF1EE10FA07DB296FA1
:10187000491C2967D8F86410491CC8F8641088ED21
:101880001F0A4042C8F8700098F80000052809D1E6
:101890000120C8F84000304688F80000A8F802008F
:1018A000A8F80400D8F84C0008990818C8F84C00AB
:1018B000D8F83400D8F84410884202D10120C8F882
:1018C0004000D8F8380000EB400109EB810B0BF623
:1018D000C000C0ED000A61684160A168816008999C
:1018E000204600F029FA68610198012802D0BAF177
:1018F000010F32D19FED6B0ADBF8C00800EE900AB1
:1019000060EEA00ADBF8C40801EE100A21EE011A0D
:10191000DBF8C80801EE900A61EEA11ADFF844096D
:10192000017B322904DAC17B322901DA30EE800AE8
:10193000417B322904DA017C322901DA30EE010AD6
:10194000817B322904DA407C322801DA30EE210A28
:1019500000F094FCF0EE409A37E00BF50C60D0ED0F
:10196000020A90ED011ADBF8C00800EE100A20EE22
:10197000000A01EE010A00EEA00A00F07FFCF0EE82
:10198000409AD4ED010A94ED000A20EE000A00EE20
:10199000A00A00F073FCB0EE408AD4ED020A94ED88
:1019A000010A20EE000A00EEA00A00F067FCF0EE4B
:1019B000408AD4ED020A94ED000A20EE000A00EEFF
:1019C000A00A00F05BFCB0EE409AD8F83C0000287A
:1019D0002ED130460CE009EB8001C1ED159A09EBE0
:1019E000800282ED008AC1ED078A81ED0E9A401CCB
:1019F0000728F0DBB1EE0C0A69EE800AC8ED090A8F
:101A0000D8F80C00C8F81800D8F81000C8F81C0066
:101A1000D8F81400C8F8200068EE000AC8ED030AE0
:101A200068EE800AC8ED040A29EE000A88ED050A6E
:101A3000D8F8380009EB800191ED150A39EEC00A9B
:101A4000D8ED090A30EE200A88ED090AC1ED159A91
:101A5000D8F8340009EB800080ED230AD8ED0B0A9A
:101A600070EE800AC8ED0B0AD8F80C20C8F81820D0
:101A7000D8F81020C8F81C20D8F81420C8F8202066
:101A8000D8F8382009EB820282ED008AC1ED078A7E
:101A900081ED0E9A3246DFED030A9FED021ADFED6B
:101AA000011A12E000000000CECC4C3E09EB82038C
:101AB00093ED002A70EE820A93ED072A31EE021AA6
:101AC00093ED0E2A71EE821A521C072AEEDBC8ED46
:101AD000030A88ED041AC8ED051AD1ED1C0A70EE50
:101AE000600A00F27442C2ED000A81ED1C0A98ED12
:101AF0000C0AD0F8741400EE901A30EE200A88ED2B
:101B00000C0A09F6141194EC030A81EC030ADFF8BD
:101B10005417096F01290AD10120C8F84000304646
:101B200088F80000A8F80200A8F804007EE0D8F8C1
:101B30005010491CC8F8501098F80020012A01D014
:101B4000032A3AD102292BD2EA8D042A28DAE96C39
:101B500000296BD198ED0A0ADFEDDA0AB4EE600ACB
:101B6000F1EE10FA08D5D0F8741401EE101AB4EEA4
:101B7000601AF1EE10FA0FDAF9EE0C0AB4EE600A10
:101B8000F1EE10FA52DBD0F8740400EE100AB4EE55
:101B9000600AF1EE10FA49D50120C8F8400045E08E
:101BA00027290AD3B8F80220002A03D011FA82F1BB
:101BB0004B2902D30121C8F84010D0F8740400EE7C
:101BC000900A98ED0A0A00F083F998F800000128BD
:101BD0002CD1B8F80200002828D0B8F80410002949
:101BE00024D0032211FA80F03D2802DB0120C8F83E
:101BF0004000E88D042800DB0222B8F8060082428B
:101C000002D20120C8F840003046C8F86400C8F885
:101C10006000C8F85C00FEF7FBFA0746286F6867AB
:101C200030462867A8F80400A8F80600D8F8340061
:101C3000D8F84810401AFA30FA242146B0FBF1F1E6
:101C400004FB1100B8F80A10884201D100F031FA03
:101C5000D8F83400D8F84810401AFA302146B0FBC2
:101C6000F1F104FB1100642801D100F063FAE88867
:101C7000BDF80810814204D1BDF80210AA88914233
:101C800000D00126002814D0D8F83400D8F8481025
:101C9000401AFA302146B0FBF1F104FB1101322960
:101CA00002D10120288116E04B2914D1002028817F
:101CB00011E0A88800280ED0D8F83400D8F84810D1
:101CC000401AFA302146B0FBF1F104FB11007D28E7
:101CD00001D1012028819DF800002989884200D087
:101CE0000126D8F8340009EB8001D1F87414C8F843
:101CF0002810401CC8F83400FA2802D10020C8F887
:101D00003400D8F83800401CC8F83800072802D141
:101D10000020C8F83800D8F83C00401CC8F83C0047
:101D200047EA0600401E8041C043C00F04B0BDEC2E
:101D3000048BBDE8F28F000030B4DFF8243590ED5D
:101D4000000AD3F8142900EE902A30EE600A03F658
:101D50001412D0ED010A92ED011A70EEC10A90ED55
:101D6000021AD2ED021A31EE611AB5EE400AF1EE16
:101D700010FA02DDF0EE401A01E0F1EE401AF5EE45
:101D8000400AF1EE10FA02DDB0EE602A01E0B1EE99
:101D9000602AB5EE401AF1EE10FA02DDF0EE412AAB
:101DA00001E0F1EE412A71EE821A71EEA21AB5EE4F
:101DB000400AF1EE10FA01DCB1EE400ADFF8A404AB
:101DC00090ED072A32EE000A80ED070AF5EE400A90
:101DD000F1EE10FA01DCF1EE600A90ED080A30EE47
:101DE000200A80ED080AB5EE401AF1EE10FA01DC87
:101DF000B1EE411A90ED090A30EE010A80ED090AB0
:101E000090ED0A0A30EE210A80ED0A0A2F4AD46BBF
:101E1000002C12D1002406E003EB850505F67C05B5
:101E2000C5ED001A641CA4B225460F2DF4DBB2EEFA
:101E30000E0A21EE800A80ED150A148903EB840353
:101E4000D3F87C5800EE105A31EEC00AD0ED150AD6
:101E500030EE200A80ED150A03F67C03C3ED001A6C
:101E6000F2EE0E0A80EE200ADFF8F03383ED1B0A53
:101E7000D0ED170AB4EE600AF1EE10FA01D580ED4C
:101E8000170AD0ED180AF4EE400AF1EE10FA01D567
:101E900080ED180ADFEDA50AB4EE600AF1EE10FA43
:101EA00003D5836DC918816501E000218165611C3E
:101EB000118189B20F2901D100211181806D30BCBF
:101EC000704700000100E040F03B03004C39030084
:101ED0009FED971ADFF88403C08D042801DBB0EE74
:101EE000001ADFF88403B5EE400AF1EE10FA07DBC2
:101EF000F5EE400AF1EE10FA02D5C188491CC18006
:101F00000178002905D0022960D02DD3032976D08D
:101F1000B0E0F1EE0C1A31EE211AB4EE401AF1EEF7
:101F200010FA0BDBB4EE601AF1EE10FA06D5016D73
:101F30001029C0F08F80002101658BE0416BDFF834
:101F4000202302EB8101D1F8741401EE901ADFF81E
:101F50001C1391ED010AF4EE401AF1EE10FA40F173
:101F60008980C1ED011A85E0416BDFF8F42202EBB4
:101F70008101D1F8741401EE901ADFF8F01291ED9E
:101F8000002AB4EE612AF1EE10FA01D5C1ED001A73
:101F9000F7EE001AB4EE610AF1EE10FA6ADBB7EE62
:101FA000000AF4EE400AF1EE10FA63D5016D4180AB
:101FB00000210165B9EE0C0A30EE410AF4EE400A48
:101FC000F1EE10FA10D40221017053E0F9EE0C1A70
:101FD00031EEC11AB4EE410AF1EE10FA4ADBF4EE2A
:101FE000410AF1EE10FA45D5032101709C49426B7C
:101FF00001EB8201D1F874149C4A51603AE0416BC4
:10200000974A02EB8101D1F8741401EE901A9749B6
:1020100091ED012AF4EE421AF1EE10FA01D5C1ED6C
:10202000011ADFED7B1AB4EE610AF1EE10FA21D548
:10203000F4EE610AF1EE10FA1CDB016D81800021E3
:102040000165B1EE0C0A31EE000AB4EE600AF1EE61
:1020500010FA0ED50121017084490A6842654A6868
:1020600082657F4A436B02EB8302D2F874240A60D4
:1020700000E0017000787047002803D077492C22D7
:1020800000F056B97047002806D0764942684A6089
:1020900002680A60007A0872704780B5002801D192
:1020A000002002BD54220146714800F041F9012090
:1020B00002BD10B5694CE08DA18D002904D0002827
:1020C00002D00020208106E0084302D001202081B8
:1020D00001E0022020810020E0646062A061A08015
:1020E000A08520636065A06502464021614800F03C
:1020F000E1F8E06F012801D1FEF744FD5948818ADB
:10210000002909D0E28E8A4201D2A18600E0A2868F
:10211000002181820846A067A06F012801D1E08ECE
:10212000A0860020A06710BD00000000EC51383EE2
:102130000000000010B5494CE08DA18D002904D0AD
:10214000002802D00020208106E0084302D00120B0
:10215000208101E00220208100206062A061E085F2
:10216000E08002460821444800F0A4F800202063E3
:10217000E06F012801D1FEF705FDA06F012801D114
:10218000E08EA08610BD80B5012036490867FFF7B4
:10219000D1FFFFF78EFFBDE8014003E00020314989
:1021A000086770472F48008B2C49898E814200D2E6
:1021B00000E070472949CA6C8B8E9A4203D2888608
:1021C0000020886770472749888270472348C16C80
:1021D000002904D1018E408E10FA81F07047002052
:1021E000704701460020002902D0012901D0704724
:1021F00002E01A48C06C70471848818EC26C891A78
:10220000028E891A408E081A00D5002070470000FF
:10221000FEFF7FBF38B504461348124D0F49012C0D
:1022200006D10622CA860C222A839622428105E024
:102230000722CA860F222A8364224281E88AA042AA
:1022400009D0888E082803DAC88EFFF7B3FF02E0B2
:10225000288BFFF7AFFFEC8231BD0000CC390300C3
:10226000EC450300C83A03004C390300ACAD030051
:10227000F03B030044A90300A44E030081B08DEDA0
:10228000000A0098401000F1FE500090DDED000AB9
:10229000C0EE200A9DED001A70EE810ACDED000A15
:1022A000B5EE001ADDED001A80EE210A00EE810A7B
:1022B00001B0704762F30F2262F31F4200B500BF06
:1022C000130096469446103928BFA0E80C50FAD85F
:1022D0005FEA417C28BF0CC048BF40F8042BC90707
:1022E00028BF20F8022B48BF00F8012B00BD50F892
:1022F000041B61B150F8042BD30744BFA9F10103BB
:102300009A180023091F42F8043BFAD1EFE77047FF
:1023100062B38B0708D0521E11F8013B00F8013B55
:1023200000F024808B07F6D1830740F0208000BFA7
:10233000103A07D330B4B1E83810103AA0E838109A
:10234000F9D230BC530724BFB1E80810A0E8081048
:1023500044BF51F8043B40F8043BD20724BF31F896
:10236000022B20F8022B44BF0B7803707047083A09
:1023700007D3B1E80810083A40F8043B40F804CB12
:10238000F7D25307E4E78268521C8260426832B198
:102390000268531C036011704168491E4160704718
:1023A0000022FFF78BBF000062F30F2262F31F428F
:1023B000401810F0030308D0C91A1FD3DB0748BF29
:1023C00000F8012D28BF20F8022D130030B4144668
:1023D0001546103928BF20E93C00FAD8490728BF24
:1023E00020E90C0048BF40F8042D890028BF20F8E0
:1023F000022D48BF00F8012D30BC7047C91818BF26
:1024000000F8012DCB0728BF00F8012D7047000010
:1024100000B583B00FF23800D0E90023CDE90023E6
:1024200000A802F048F89DF900004FF461619DF9A1
:102430000120C2EB02139A0011FB00209DF902104B
:1024400040FA81F04FF47A7148430EBD000000005D
:10245000000000000000000010B500F047F9DFF8B0
:10246000AC4CA078022802D0207A002801D100F0DC
:1024700095FA2079002801D001F03DFCE07B00288E
:1024800003D0BDE8104001F02DBD10BD80B5DFF8D0
:10249000801C0FF2200002F06FF902F03EFADFF824
:1024A000741C48630020DFF8641C4871BDE80140DB
:1024B0009EE000002573203A534C435F53746172D1
:1024C0007400000080B5DFF8481C0FF2100002F025
:1024D00053F9BDE8014001F053BD00002573203AD7
:1024E000534C435F53746F700000000070B5DFF809
:1024F000244CDFF8185C05F15801204601F036F94C
:10250000D4E90401DFF8106CD6E90423994201D123
:10251000904213D0002901D100280FD0E87B002879
:102520000CD1A879002804D100220321022000F058
:102530000FF8304621462022FFF7FAFEE878297985
:102540000843E97B084301D0206B70BD002070BDBB
:10255000F8B507460E461446DFF8B85B686B0028EE
:1025600003D0E86AB0F5FA7F05D902F0D6F96863BE
:102570000020E8622863FFF74BFF696BEA6A575453
:10258000EA6A521CEA625654EA6A521CEA62230E54
:102590005354EA6A521CEA62230C5354EA6A521CEE
:1025A000EA62230A5354EA6A521CEA625454EA6A01
:1025B000521CEA62030E5354EA6A521CEA62030C8C
:1025C0005354EA6A521CEA62030A5354EA6A521CE0
:1025D000EA625054E86A401CE862296BB1F5FA7F60
:1025E00000D22863B0F5FA7F01D30020E862F1BD84
:1025F00038B5DFF81C1B0FF2E80002F0BDF8DFF879
:102600000C4B0020207042F213750246012128462F
:10261000C046C04600206070024602212846C046DF
:10262000C04600223021DFF8F40AFFF743FE002203
:102630000C2104F11000FFF73DFE00220C2104F1F3
:102640003000FFF737FE00220C2104F13C00FFF7B9
:1026500031FE00222021DFF8BC0AFFF72BFE00220A
:102660002021DFF8B40AFFF725FE0022182104F12B
:102670005800FFF71FFE0020E0702071A0673C208B
:10268000A0614FF49670A063012020726072002058
:102690006071A0716073A073E0670120A0700022D8
:1026A000014642F21270C046C0460020207340F638
:1026B000B830206700200146C4E91401C4E91201C2
:1026C0004FF0FF3060670A46142104F11C00FFF749
:1026D000F1FD9FEDD00A84ED070A84ED080A31BDB3
:1026E000257320474320496E69740000F8B5DFF870
:1026F0001C4AE078002800F0F980DFF8185A2078AA
:10270000012808D0022823D0042800F0858006285C
:1027100000F0C880F1BD288C401C288480B232288B
:10272000C0F2E480DFF8E8696369A26931460FF21C
:10273000C01002F021F8227831460FF2D41002F0D6
:102740001BF804F1100000F07FF900202884F1BD8F
:10275000688C322801DB00206884688C002805D151
:10276000DFF8AC190FF2B81002F006F8688C401CC4
:10277000688404F15801284600F0F8FFDFF89879E2
:102780003946284600F08EFB00282FD00022022177
:102790000120FFF7DDFE0020A8620120E07138462D
:1027A00029462022FFF7C4FDA07802280CD1012081
:1027B000A0700022014642F21270C046C0460022BC
:1027C00001210220FFF7C4FE0120207002460146CD
:1027D00042F21370C046C0462079002800F086807F
:1027E000FFF716FE20640020E063F1BDA86A401CDC
:1027F000A862FA2806D1A06D002877D1E079BDE85B
:10280000F240FAE240F2EE2188426FD30020A86243
:10281000E079BDE8F240F0E2DFF8F46831460FF20B
:102820001C1001F0A9FFDFF8F0783946284600F0C7
:1028300039FB00282ED0002206210120FFF788FE58
:102840000020A8620120E071384629462022FFF7C7
:102850006FFDA07802280CD10120A0700022014653
:1028600042F21270C046C046002201210220FFF74A
:102870006FFE012020700246014642F21370C046EE
:10288000C0462079002831D0FFF7C2FD2064002027
:10289000E063F1BD31460FF2C00001F06DFF012091
:1028A0002070F1BDA88C322801DB0020A884A88C00
:1028B000002805D1DFF858180FF2C80001F05CFFBE
:1028C000A88C401CA884206F401E20670ED100F009
:1028D000E9FE022020700246012142F21370C04638
:1028E000C04640F6B83020670020E071F1BD00001E
:1028F00025732048575F4750535F5052206D696ED3
:102900005F742025642C206D696E5F64202564004F
:1029100025732048575F4750535F5052202564006D
:1029200025732048575F4750535F505220475053FC
:1029300020747261636B696E670000002573204824
:10294000575F4750535F50522070617373697665CB
:10295000204750530000000025732048575F475020
:10296000535F505220706173736976652046414908
:102970004C45442D46414C4C4241434B2041520A68
:102980000000000025732048575F4750535F5052A6
:10299000204750532074696D6572000070B5DFF8F0
:1029A0006C576878012802D0032821D070BDDFF869
:1029B000B84D2088401C208080B2322814DBDFF81C
:1029C00050676B6BAA6B31460FF24C0001F0D4FEDE
:1029D0006A7831460FF2600001F0CEFE05F130005A
:1029E00000F03AF80020208043F69820606070BD27
:1029F000DFF8744D6068401E606009D10020686394
:102A0000A86305F1300000F09BF843F69820606061
:102A100070BD0000000048432573204E4C505F50AD
:102A200052206D696E5F742025642C206D696E5F85
:102A300064202564000000002573204E4C505F5038
:102A4000522025640000000010B5044600F0B2F8E2
:102A50002046BDE8104025E010B5044600F0AAF875
:102A6000204600F06DF8DFF8880DC168002918D005
:102A7000012902D100216160C160017801290ED1D4
:102A80004178022906DA017A00290AD0C168491E74
:102A9000C16010BD05D100210172C16010BD0121CE
:102AA000017210BD10B5DFF86446217A002917D0F5
:102AB0008168012914DA4068012802DB606F002870
:102AC0000ED14FF0FF30606700F0ECFD0220207067
:102AD0000246012142F21370BDE8104001F0F9B83E
:102AE00010BDF8B5DFF8084D2078042810D1FFF7A5
:102AF0008FFC0021DFF81426D2E91467801BB9414E
:102B000044F620620023994216D801D3904213D292
:102B10002078012812D0FFF77BFC0021DFF8EC259C
:102B2000D2E91245001BA9414EF6602200239942CA
:102B300004D301D8904201D30120F2BD0020F2BDA0
:102B400038B5DFF8C845617A002932D0816801299B
:102B50002FDA4068012802DB606F002829D14FF08E
:102B6000FF306067207A002817D0FFF7BAFF0028EF
:102B700013D000F097FD0220207042F21375024638
:102B800001212846C046C04600206070024602214E
:102B90002846BDE8384001F09CB801F09BF80320BE
:102BA00060700246022142F21370BDE8384001F025
:102BB00090B831BD2DE9FC470446002702F0B3FF71
:102BC0000546DFF84865B06F002800D02F1AB567BA
:102BD00000A802F097FFDFF8188C404600A90622F3
:102BE000FFF796FBDFF8289598F80100009098F819
:102BF00000302A4649460FF2801001F0BDFD98F8DA
:102C00000000012829D1FFF703FC0021C6E91201C9
:102C100098F80100022810DA98F80A00002829D054
:102C200096F90B00002825D098ED040ADFED960AEE
:102C300030EE200A88ED040A1CE01BD198F80A0047
:102C4000002806D096F90B00002802D008466060E4
:102C5000A060084688F80A000CE0042807D1707BC1
:102C6000042804D0FFF7D4FB0021C6E91401012099
:102C700088F80A0098ED040AF7EE000AB4EE600A3C
:102C8000F1EE10FA06DB7F1CFFEE000A30EE200AA0
:102C900088ED040AB07A002822D098F800000428B1
:102CA0000ED194ED010AB8EEC00ADFEDB70A80EE4E
:102CB000200ABDEEC00A86ED1D0A0020B0720FE0AA
:102CC00005280DD194ED010AB8EEC00ADFEDAF0A78
:102CD00080EE200ABDEEC00A86ED1D0A0020B0720B
:102CE000F06F002800D1F56798F80000717B8142F1
:102CF0001CD0ED1B4FF00A0AF16F6A1A98F8011008
:102D00001AFB0011C9B20320FFF722FCF06F2A1A48
:102D100098F8000098F801101AFB001142F21570A3
:102D2000C046C046F56798F8000070733B4662687D
:102D300049460FF26C0001F01FFD98F8010088F879
:102D400009006068012808DB012F02DBC01B6060FE
:102D500003E0002F01D500206060B07A002804D184
:102D6000706F012801DB401E7067A068012801DB3D
:102D7000401EA060BDE8F38725732047435F436191
:102D80006C5F415244206375725F643A256420741D
:102D90007970653A2575206163633A2575000000F6
:102DA00025732047435F43616C5F415244206D6946
:102DB0006E3A256420646966663A25640000000066
:102DC00038B5D24CA078022816D1002060634FF4A9
:102DD0009670A0630120607042F2137502460221D2
:102DE0002846C046C04600202070024601212846E1
:102DF000BDE8384000F06DBF31BD38B505462A4604
:102E0000C3490FF2880001F0B7FC00F07EFCBF4C14
:102E1000002D0ED0062020700246012142F21370D0
:102E2000C046C046002203210120BDE83840FFF71C
:102E30008FBBA07801280CD10220A070002201468F
:102E400042F21270C046C046002202210846FFF737
:102E50007FFB607A002813D000F03CFF03206070F5
:102E600042F21375024602212846C046C0460020A1
:102E70002070024601212846BDE8384000F029BFF5
:102E8000BDE831409CE700001F852B3F257320479C
:102E9000432048204750532074696D656F75742036
:102EA00025640000F0B583B00446D4E90423D1E9D9
:102EB0000467BB4201D1B24264D0002B01D1002A89
:102EC00060D094ED000AB5EE400AF1EE10FA06D19A
:102ED000D4ED010AF5EE400AF1EE10FA1DD0DFED57
:102EE000870AB4EE600AF1EE10FA16D4DFED840A18
:102EF000B4EE600AF1EE10FA0FDA94ED010ADFED9C
:102F0000810AB4EE600AF1EE10FA06D4DFED7E0A13
:102F1000B4EE600AF1EE10FA06DB6422FF21042011
:102F2000FFF716FB0020FEBD7C4900F04DF800F0D5
:102F3000ECFB764D3C20A8610120A8722068E86176
:102F400060682862FFF764FA686202F0ECFDA8622C
:102F5000A069E8626E4CAA6A21460FF2340001F0C3
:102F60000BFC286A02F06EFFCDE90001E86902F06F
:102F700069FF02460B4621460FF22C0001F0FCFBD4
:102F80000120FEBD0020FEBDCDCC5C41CDCCDC409F
:102F900025732047435F485F4C2061725F6469730B
:102FA000742025640A00000025732047435F485FB2
:102FB0004C206C6174203A2025662C206C6F6E20AA
:102FC0003A2025660A0000002DE9F0412DED028B24
:102FD00004460D464D4E6FF000407061002712E030
:102FE00030EE480AD6ED050AF8EEE00AB4EE600AC3
:102FF000F1EE10FA06D5BDEEC00A86ED050A38F8E6
:10300000010030827F1C0A2F25DA302000FB07F8F0
:1030100008EB050081780029F4D0D0ED031A90ED7B
:10302000021AD4ED010A94ED000A00F079F8B0EE2E
:10303000408A384680B200F025F8384908EB010094
:1030400090F92C20002A90ED0A0AB8EE400AC7D069
:1030500038EE400AC6E70120F07200210CE0302073
:1030600000FB01508278002A05D090F92C0000283E
:1030700001D10020F072491C0A29F0DBBDEC028B63
:10308000BDE8F08100EB40010901244A885A891803
:10309000D1ED0A0AF8EE600A283191F90420002ADD
:1030A0000AD0012A18D0B2F1FF3F25D1F4EE400A30
:1030B000F1EE10FA15D504E0F4EE400AF1EE10FA44
:1030C0001AD501220A7113498A69D1ED010A91EDDD
:1030D000000A012100F098BDB4EE600AF1EE10FA8A
:1030E0000AD500220A710B498A69D1ED010A91EDD6
:1030F000000A002100F088BD704700000000B4C243
:103100000100B442000034C301003443C03803005E
:10311000A0500000B8A90300B0AB0300788D0300F5
:103120002DE9704F2DED108B94B0B0EE418A9FEDDC
:1031300073AA21EE8A1A00EECA1A8DED0B1A00202E
:103140000A9020EE0A0A02F0A5FE9FED6D9BF7EEB5
:10315000000AF0EE608A10EE100A02F073FE53ECE3
:10316000192B02F047FF03F017F800EE100AF0EEFB
:10317000680A03F059F8F0EE408A28EE0A0A02F0D5
:1031800089FEF7EE000AB0EE608A10EE100A02F037
:1031900059FE53EC192B02F02DFF02F0FDFF00EE5B
:1031A000100AF0EE480A03F03FF8B0EE408AB0EEA5
:1031B000680A03F070F88DED090AB0EE480A03F0D2
:1031C0006AF88DED040AB0EE680A03F067F88DED39
:1031D000080AB0EE480A03F061F88DED070A9DED8C
:1031E000090ADDED040A20EE200A8DED060A9DEDA8
:1031F000080ADDED070A20EE200A8DED050A9FED95
:103200003EEA9FED3DAA9DED0B8A002600E0761C6C
:1032100036B2142E80F230828DED0C8AB0EE480A60
:1032200003F039F8F0EE409AB0EE480A03F036F8B1
:10323000B0EE409A9DED040A20EE090ADDED090A80
:103240009DED071A60EE810A9DED081ADDED041A66
:1032500021EE211A41EE690A20EE000A00EEA00AD2
:10326000B5EE400AF1EE10FA0EDB10EE100A02F095
:10327000E9FD41EC100B03F015F851EC100B02F0D6
:103280008BFF08EE900A01E0DFED1B8A9DED060A38
:103290009DED058A00EE298AF0EE480AB0EE680A34
:1032A00002F0C2FFB0EE40EAF5EE408AF1EE10FA0D
:1032B00002D1DFED11EA05E09DED060A20EE090AD4
:1032C000C0EE28EAB7EE00AA0EEEEEAA18EE100A3B
:1032D00002F0B8FDCDE912011AEE100A02F0B2FDBB
:1032E00041EC1B0B9FEDED9BB5EE40AAF1EE10FA01
:1032F0000AD19FED01CA1CE00000000034FA8E3CA8
:10330000000020B588E4EF3F059802F09BFD53ECE8
:10331000192B02F06FFE53EC1B2B03F043F802460F
:103320000B46DDE9120103F061F902F035FF0CEE06
:10333000100A9FEDD90A2AEE000A10EE100A02F0D8
:1033400081FD41EC1A0B0022DFF8883B02F052FEAF
:1033500004460D4651EC1A0B0022DFF87C3B02F0CC
:1033600049FE02460B460020DFF8701B03F03EF9D1
:1033700002460B4651EC1A0B02F03CFE0022DFF82D
:10338000603B03F0F3F902460B4651EC1A0B02F0D6
:1033900031FE0022DFF8E03B03F0E8F922462B463D
:1033A00002F028FE0022DFF80C3C03F0DFF902F007
:1033B000F3FE0A9051EC1A0B0022DFF8C03B02F03A
:1033C00019FE04460D4651EC1A0B0022DFF8E83BCB
:1033D00002F010FE02460B460020DFF8E01B03F06F
:1033E00005F902460B4651EC1A0B02F003FE0022CF
:1033F000DFF8CC3B03F0BAF902460B4651EC1A0B4E
:1034000002F0F8FD0022DFF8BC3B03F0AFF92246E2
:103410002B4602F0EFFD02F0BFFE0FEE100A9FED0B
:10342000D0AB51EC1B0B4FF06042DFF8EC3B02F0ED
:10343000E1FD04460D4651EC1B0B0022DFF8DC3B9E
:1034400002F0D8FD02460B4651EC1A0B03F0CEF801
:103450004FF06042DFF8043C02F0CCFD53EC1A2B35
:1034600003F084F922462B4602F0C4FD02F094FEDC
:103470000FEE900A2CEE0C0A10EE100A02F0E2FC9D
:10348000CDE9100118EE900A02F0DCFCCDE90E0146
:103490001FEE100A02F0D6FCCDE902011CEE100A64
:1034A00002F0D0FC41EC1B0B9FEDD2CB9FEDD3DBA8
:1034B0002FEE280A10EE100A02F0C4FCCDE900013C
:1034C000DDE902010022DFF8983B02F093FD04469B
:1034D0000D46DDE9100153EC192B02F08BFD53EC86
:1034E0001D2B03F043F902460B46DDE9120102F001
:1034F00081FD82468B46DDE902010022DFF8643B54
:1035000002F050FF53EC1B2B02F074FD80468946FD
:10351000DDE90E2351EC1A0B02F06CFDDDE90E2300
:1035200002F068FD53EC1C2B03F020F942464B4699
:1035300002F060FD80468946DDE9102351EC1A0B4C
:1035400002F058FD53EC1C2B03F010F942464B4699
:1035500002F050FD02460B465046594603F046F82D
:1035600022462B4602F046FD02460B4651EC1B0B51
:1035700003F0FCF8DDE9002302F03CFD02F00CFE54
:103580000AEE100A0B9802F05DFCCDE902011FEE75
:10359000900A02F057FC02460B460020DFF8141A8E
:1035A00003F024F84FF06042DFF8B03A02F022FD59
:1035B00004460D461EEE900A02F044FC22462B46BD
:1035C00002F018FDCDE900011EEE100A02F03AFCEF
:1035D000804689462FEEA80A10EE100A02F032FC4F
:1035E00004460D462FEE880A10EE100A02F02AFC5F
:1035F00082468B4653EC1B2B51EC190B02F0FAFC64
:1036000053EC1B2B02F0F6FC53EC1D2B03F0AEF831
:1036100052465B4602F0EEFC53EC1B2B03F0A6F87F
:1036200022462B4602F0E6FC42464B4603F09EF84B
:10363000DDE9002302F0DEFCDDE9022303F096F869
:1036400002F0AAFD08EE100AB5EE408AF1EE10FA7B
:1036500002D19FEDAF0A05E09DED0C0A38EE400A5D
:1036600080EE080AB0EEC00ADFEDD10AB4EE600ABF
:10367000F1EE10FA7FF5CBAD9DED0A0ADFEDCD0A34
:1036800020EE200A7EEE4A0A20EE200A14B0BDEC9D
:10369000108BBDE8708F000032D6DC3B00000000CC
:1036A0000000004038B5662003F05FFA01460020B4
:1036B0008DF80000002921D0DFF8AC49A07900285E
:1036C00022D10FF6DC1500A8096A4968884700284E
:1036D000294604D00FF6D41001F04EF803E00FF69F
:1036E000E01001F049F80020DFF89019886201200D
:1036F000A07100220146FEF72BFF31BD0FF6A0118D
:103700000FF6D01001F038F831BD38B5662003F05F
:103710002CFA014600208DF80000002919D0DFF8AE
:103720004849A07900281AD00FF6741500A8096A34
:10373000C96888470028294604D00FF6A81001F070
:103740001BF803E00FF6B01001F016F80020A0718E
:1037500031BD0FF64C110FF67C1001F00DF831BDA4
:103760000000000000001040D845030070B504467A
:103770000D4603F0F1FC0646D6E9000102F00CFD0F
:103780002060D6E9020102F007FD60600020A06021
:10379000E060D6E90A01C4E90401306BA061002DA4
:1037A00002D096F83C00286070BD38B5DFF8B84804
:1037B000607900281BD10FF6E80529460FF64C105A
:1037C00000F0DAFF002204F18001412003F0BFF88D
:1037D0000028294605D00FF64410BDE8344000F01B
:1037E000CBBF0FF64C1000F0C7FF0120607131BD58
:1037F0000C45030000000000000008C000000000AD
:103800000000F0BF38B5DFF86048607900281BD0B1
:103810000FF68C0529460FF62C1000F0ADFF0022A4
:1038200004F18001412003F0E8F80028294605D082
:103830000FF61C10BDE8344000F09EBF0FF62810B4
:1038400000F09AFF0020607131BD0000F8B52DED49
:10385000028B064608EE101A08EE902A1C46DFF886
:103860000858E87800280FD1FFF79FFF012000F0EB
:10387000D7FB0021DFF8F407FFF778FF00220121D2
:1038800042F21470C046C0460120E8704FF0FF308D
:10389000E8720021DFF8D83700E0491C0A2921DA54
:1038A00001EB41021201D71897F802C0BCF1000FDA
:1038B000F3D1D652B8EEC80ADFED9D0A80EE200A99
:1038C00087ED020A07F10801B8EEE80A80EE200A47
:1038D00081ED010A0C6287F82C000120B870287B6A
:1038E000401C2873287A00280ED0A87801280BD114
:1038F000FFF7D8FE022028700246012142F2137021
:10390000C046C0460120E871BDEC028BF1BD00004D
:103910000000000070B54FF0FF31DFF84C47012286
:10392000E27200220AE0EB189D78002D05D093F991
:103930002C30002B01D10023E372521C0A2A08DA32
:1039400030255543DFF82837EE5A8642EBD1114631
:10395000F3E709B211F1010F28D0207B401E20733C
:103960003025DFF80C3715FB0130002181700A4645
:103970002946FEF719FD207B002817D10020E070B2
:103980002079DFF800174978084301D1FFF73AFFA3
:10399000FFF7BBFE002000F043FBFEF729FE0022EC
:1039A000022142F21470BDE8704092E170BD000047
:1039B000CDBC8C2B21FEC14A10B5044622460FF225
:1039C000E0610FF2B47000F0D7FE012C0ED1DFF8E9
:1039D000984600202072FFF798FE002020700246D3
:1039E000012142F21370BDE8104072E1032C0BD1AB
:1039F000DFF874460020607260700246022142F2D5
:103A00001370BDE8104064E110BD38B5044622468D
:103A10000FF28C610FF2707000F0AEFE022C2DD10F
:103A2000DFF84446207A00282ED101202072E07869
:103A3000002829D0FFF736FE0220207042F21375CD
:103A4000024601212846C046C0460020607002465A
:103A500002212846C046C04600200A2814DADFF8B2
:103A6000101600EB400201EB02118A78002A03D005
:103A70004FF0FF3281F82C20401CEEE7042C03D1DC
:103A80000120DFF8E415487231BDF8B506460C4652
:103A900015460FF20C6739460FF2007000F06CFE0D
:103AA0004FF0FF30002109E0DFF8C42501EB4103AE
:103AB0001B019A5AB24200D10846491C0A29F3DB7D
:103AC00000B210F1010F15D03021DFF8A42511FB51
:103AD00000208462283090F9041011F1010F07D101
:103AE000DFF884359978022902D0197A002906D1A5
:103AF000057104E039460FF2C06000F03DFEDFF8CA
:103B000068350120D87200200EE03021DFF86025F2
:103B100001FB00218A78002A05D091F92C10002998
:103B200001D10021D972401C0A28EEDBF1BD000052
:103B30008096184BF8B504460D462F463B46224664
:103B40000FF25C510FF2846000F016FEDFF818658A
:103B5000F078002801D1FFF728FEB078022802D0C3
:103B6000307A002828D1C7EB07108000B063746357
:103B700001207070DFF8100540F2DC518C4202D257
:103B80000021C16009E00A21B4FBF1F1C160B1F587
:103B9000967F02D24FF49671C16042F213770122F0
:103BA00002213846C046C04600203070024601213E
:103BB0003846C046C04611E074613C20B061012027
:103BC00030700246014642F21370C046C04640F6CD
:103BD000B83030670020F0710120B072FFF795FD1A
:103BE000224629460520BDE8F840FEF7B1BC80B565
:103BF0000FF2AC410FF2F85000F0BEFDDFF86804A0
:103C000000214170017001BD70B52DED028B84B0B3
:103C100004460D46B0EE408AF0EE608A164618EE75
:103C2000900A02F00FF9CDE9020118EE100A02F035
:103C300009F9CDE900012B4622460FF264410FF24B
:103C4000C05000F099FD9FED9F0AB4EE408AF1EE5E
:103C500010FA14D49FED9C0AB4EE408AF1EE10FAEB
:103C60000DDA9FED9A0AF4EE408AF1EE10FA06D4CE
:103C70009FED970AF4EE408AF1EE10FA09DB224636
:103C8000FF21042004B0BDEC028BBDE87040FEF7BC
:103C90005FBCDFF8E003048085709FEDC50A68EE25
:103CA000000AFDEEE00AC0ED010A28EE800ABDEE32
:103CB000C00A80ED020AC660012001F057F82246D2
:103CC0002946042004B0BDEC028BBDE87040FEF72D
:103CD0003FBC704780B50FF2C8310FF2485000F07A
:103CE0004BFD002204210120FEF732FC0320BDE839
:103CF000024001F03BB810B5E24C2078012809D110
:103D00006088401C608080B2322803DB00F003F83A
:103D10000020608010BD7CB5002601F004FFD64C69
:103D2000A168002900D0461AA060CF4DE86B30187A
:103D3000E86300A801F0E6FE204600A90622FEF78F
:103D4000E7FA2078A97B81420ED0E978002909D1D1
:103D5000EA6B00EB8001480061784118C9B2062087
:103D6000FEF7F6FB2078A87373BD10B50FF2303163
:103D70000FF2BC4000F000FDBB4C01202071002080
:103D8000E063FEF745FB606420640120BD490870D4
:103D9000BDE8104009E580B50FF204310FF2A040F4
:103DA00000F0EAFCB04800210171B64900220A7017
:103DB000C0784978084302D1BDE8014022E501BD41
:103DC00080B50FF2DC210FF2884000F0D5FCA64947
:103DD000C86B0A6C496C511A0BD0A8498A690092C9
:103DE000D1ED010A91ED000AD1E9042300F01EF89B
:103DF00001BD9FEDA60A00210091F0EE400A0A469F
:103E00000B4600F013F801BD10B50FF294210FF22C
:103E1000544000F0B1FC944C0020E063FEF7F8FA47
:103E20006064206400209449886010BD38B52DED91
:103E3000048B09EE100A14461D46B0EE408AF0EEDF
:103E4000608A19EE102A0FF258210FF2284000F074
:103E500093FC8B48B8EE490AF2EE040A20EE200AE1
:103E6000BCEEC00A80ED000AC0E902459FED500A91
:103E700068EE000AFDEEE00AC0ED040A28EE800AB2
:103E8000BDEEC00A80ED050A089981610420BDECF1
:103E9000048BBDE8324000F069BF012810DB01212E
:103EA000714AD1737A4900224A618A610A70B0F579
:103EB000167F02DA0B300861704740F25920086122
:103EC000704700000000B4C20100B442000034C3D7
:103ED000010034430000103F00E0654000007440E2
:103EE000000088C038B52DED028B694C6069411C1B
:103EF0006161226932235A43904204D3BDEC028BA4
:103F0000BDE831403CE0B1F5FA7F32D3207800289B
:103F100007D1FFF7C7FB0120207022690146FEF799
:103F200017FBA069411CA161322822D30020A061A7
:103F300003F012F9054695F83C00A0809FED558BE3
:103F4000D5E9002351EC180B02F054F803F096F970
:103F5000A060D5E9022351EC180B02F04BF803F0F6
:103F60008DF9E0600220BDEC028BBDE8324000F02C
:103F7000FDBEBDEC028B31BD0000B0400000503FE3
:103F800010B53948C17B002910D00021C173404CC5
:103F9000084620616061A0612070FFF7B6FB2269CE
:103FA00005210120BDE81040FEF7D2BA10BD000087
:103FB0008096184B0000F03F008047400080524040
:103FC000000060C00000704038B504460FF2BC200D
:103FD00000F0D2FB24480178022916D00421017098
:103FE000264DD4E9000102F0D7F82860D4E9020197
:103FF00002F0D2F868600020A860E860D4E90A0105
:10400000C5E90401206BA86131BD0FF2A020BDE815
:10401000324000F0B1BB00004A772B3F000008405F
:1040200010B50FF27C0400280CD01C4803F0D8F91E
:10403000012003F00BFA21460FF29C20BDE810404E
:1040400000F09ABB002003F001FA03F0D4F92146F6
:104050000FF2A020BDE8104000F08EBB4A776B3F06
:104060000000D03F00001840C0380300B0AB030090
:10407000788D030060AD030070AD0300B8A90300A4
:10408000D0AB0300ECAD03000C4503000000484337
:1040900094AB030000000000D0126341C94F000040
:1040A000534C4356332E302E383A000025732047A8
:1040B0005053207374617274206661696C00000053
:1040C0002573204750532073746172742073756395
:1040D00063000000257320676574204750532066F5
:1040E00061696C002573204750532073746F7020F2
:1040F0006661696C000000002573204750532073EF
:10410000746F702073756363000000002573204195
:10411000522073746172740A0000000025733A2003
:10412000453A204152204F70656E206661696C00EF
:104130002573204152207374617274207375636318
:104140000000000025732041522073746F700A0034
:1041500025733A20453A20415220436C6F73652005
:104160006661696C00000000257320415220737461
:104170006F7020737563630025732047435F506140
:10418000757365203A25640025732047435F5265A7
:1041900073756D65203A2564000000002573203A90
:1041A00047435F5570646174652047465F5374618F
:1041B0007475733A256400002573203A47435F55B0
:1041C00070646174655F45525200000025733A4780
:1041D000435F53746172745F4152206D696E5F6416
:1041E0003A25642C206D696E5F743A2564000000E6
:1041F0002573203A47435F53746F705F415200004C
:104200002573204465746563745F43422069643A92
:1042100025643A2564206C61743A2566206C6F6EC3
:104220003A2566002573203A41525F434200000060
:104230002573203A434C432053746172740000008C
:104240002573203A434C432053746F7000000000E4
:104250002573203A434C432052657120446973749E
:10426000000000002573203A434C432052657365DB
:10427000740000002573203A434C43204469737452
:104280005F4342203A20256400000000534C43560F
:10429000204C5349206F6E506173736976654C6F83
:1042A000636174696F6E436200000000534C4356B3
:1042B000204C5349206F6E506173736976654C6F63
:1042C000636174696F6E436220475053207472615A
:1042D000636B696E6700000025732047435F47509A
:1042E000535F5265675F506173736976655F4342E0
:1042F000210A000025732047435F4750535F556EE6
:104300007265675F506173736976655F4342210A26
:104310000000000000B587B007208DF800000520E0
:104320008DF804000120ADF807000FF2044000F002
:1043300023FA00A901A803F0EFF907B000BDDFF8E8
:104340008803704710B586B0044601A81421FEF713
:1043500027F8FFF7F4FF00900D22214601A8FDF792
:10436000D7FF0420ADF8070000A901A803F0D4F995
:1043700006B010BDF0B589B0044602A81421FEF7BE
:104380000FF800200146CDE90001012510E0284684
:1043900002F0EBFB00280AD0DDE9006701200021D4
:1043A0002A4603F03DFA30433943CDE900016D1C44
:1043B000272DECDB0D22214602A8FDF7A9FF0820DE
:1043C000ADF80B0000A902A803F0A6F909B0F0BDF2
:1043D00010B5040002D00FF2683101E00FF268312D
:1043E0000FF2543000F0C8F9B548047010BDB4485D
:1043F00000787047B24840787047B148807870477D
:1044000070B586B0044600A81421FDF7C9FF0D223F
:10441000214600A8FDF77CFFA94CD4E9040100293E
:1044200001D100280DD00DF105052A686B68101A1E
:1044300063EB0101A34A0123994202D822D390429F
:1044400020D3A24D2878401C2870802080F311884A
:1044500000BF00BF6878401C687003F0B7FB0DF127
:10446000050632687368C4E90423C4E90601687864
:10447000401E6870C0B2002802D1002080F311886D
:1044800003F0E0FC06B070BD38B503F09FFB8C4A2A
:10449000D2E9044520186941D2E90645001BA9412B
:1044A00034BD874902780A7142784A7180788871F0
:1044B00000200881704706228549FDF729BF804A00
:1044C000136A002B01D0CB1A00E00346B3F57A7FC4
:1044D00000D3034610891818108100B2B0F57A7F16
:1044E00005DBA0F57A7010819079401C907192F9EB
:1044F00006003C2804DB3C3890715079401C507118
:1045000092F905003C2804DB3C3850711079401CBE
:10451000107192F90400182801DB0020107111625B
:104520007047000010B5042801DA022010BD1428DD
:1045300001DA022400E00A2490FBF4F003F036FDD7
:1045400041EC100B03F04AFD51EC100B02F080FE21
:1045500003F02CFD41EC110B9FED5E0B03F089FF86
:1045600051EC100B02F074FE604310BD00B587B033
:1045700002A80FF2DC111422FDF7DAFE00A80021D8
:104580000A4606C003F068F901788DF8001000A90A
:10459000C2784A7042798DF802208079C870012073
:1045A0008DF804000520ADF80B0002A803F0B4F864
:1045B00007B000BD30B59FB005A86421FDF7F0FE3F
:1045C00000A80FF2A0111422FDF7B2FE0024FF2272
:1045D000642105A8FDF76EFE012517E02846C0B24C
:1045E00002F0C3FA002810D02946491E012906D935
:1045F000C91E022903D9091F01D01A3905D105A9FD
:1046000064B26554C08A401C04196D1C092DE5DB99
:1046100064B2ADF8034005A900A803F07DF80020BE
:104620001FB030BD10B50446A0780146491E0129CF
:104630000FD9091F012914D9891E012919D9891EE9
:1046400001291ED9203924D1D4F80D00FFF729FF04
:104650001FE0012801D1002000E001201849087066
:1046600017E0052801D1012000E0002014498870DE
:104670000FE0072801D1012000E000201049C87098
:1046800007E00F49092802D10020487001E001200D
:104690004870A0781438032801D915380ED12A2083
:1046A00002F063FA030009D0D4F80D20B4F8031027
:1046B000A0781B6A1B69BDE81040184710BD0000B8
:1046C00030AB030000F2052ADC9F2301903D03007C
:1046D00034AB0300000000000000004081780C298A
:1046E00006D0182906D01B2903D02C2903D07047E7
:1046F00028E63FE63AE75DE780B500228DF8002026
:10470000082801DA002809D1052907DA01208DF8E7
:10471000000000A9052004F0F4F801BD052805DA21
:10472000082903DB00A9052004F0EBF801BD000017
:10473000524553455400000061702025730000006D
:1047400073757370656E6400726573756D650000D6
:1047500004FF18000000000000000000000000003E
:104760000000000004FF2C0000000000000000001A
:1047700000000000000000000EB470B5C1B0044697
:1047800000A84FF48071FDF70BFE45AB22464FF4B5
:10479000807100A804F022F900A804F03DF9441C3F
:1047A000002000A9611801F8010C274D2878401C51
:1047B0002870802080F3118800BF00BF6878401CFB
:1047C0006870224E317808462218FA2A0DDA204AFB
:1047D0008018002902D00A2100F8011C224600A9F5
:1047E000FDF796FD3078201830706878401E6870AC
:1047F000C0B2002802D1002080F3118803F022FB10
:1048000041B070BC5DF810FB10480078002801D062
:10481000801C00E00020C0B2704738B50B4C2278F5
:10482000002A10D000280ED0032101704270084DDC
:104830002946801CFDF76CFD0022FA212846FDF771
:1048400039FD0020207031BD903D030000AE030013
:1048500018A203000020704780B50FF65010FFF734
:104860008BFF00224FF40071DFF81C09FDF722FDD9
:10487000FDF70CFE002002BD80B50FF63C10FFF7DF
:104880007BFFFDF71FFE002002BD70B5FFF7B5FDF1
:104890000446DFF8F858012C03D195F904000028EC
:1048A00003D095F90500012828D1FDF71FFE064623
:1048B00031460FF61010FFF75FFF00206871FB2EE6
:1048C00008D3FA2100F01CF9314689B2FA2000F031
:1048D00017F905E0002E11D0314689B200F010F929
:1048E00000224FF4007105F10800FDF7E3FC002001
:1048F000DFF89C180860DFF89C1808602C7170BD08
:1049000080B50020DFF88418C880FDF7A5FDFFF70B
:10491000BCFF002002BD00207047DFF86C08704724
:10492000F0B583B004460D4616461F4621460FF6E5
:10493000A800FFF721FF09980190089800903B46D6
:10494000324629462046FEF781FFDFF84008012164
:1049500001700021417044800520BDE8FE4005E261
:1049600010B504460FF68800FFF706FF2046FEF755
:10497000D1FFDFF818080221017000214170448046
:104980000520BDE81040F1E138B50446254629462A
:104990000FF67400FFF7F0FE012D0AD12046FFF755
:1049A0000BF8DFF8E8070321017000214170418016
:1049B00025E0022D0AD12046FFF727F8DFF8CC07C3
:1049C0000421017000214170418018E0032D0AD1BB
:1049D0002046FEF7F1FFDFF8B40705210170002142
:1049E000417041800BE0042D09D12046FFF70DF8FE
:1049F000DFF89807062101700021417041800520F1
:104A0000BDE83240B2E170B504460D4616460FF6D9
:104A10001800FFF7B1FE324629462046FFF735F869
:104A2000DFF86807072101700021417044800520EC
:104A3000BDE870409AE138B504460D462A46214645
:104A40000FF61000FFF798FE29462046FFF772F890
:104A5000DFF83807092101700021417041800520ED
:104A6000BDE8324082E180B50FF60800FFF784FE12
:104A7000FFF7BDF8DFF814070A210170002141702B
:104A800041800520BDE8024070E110B50446214692
:104A90000FF2F070FFF770FE012C06D028D3032C24
:104AA00015D00BD3042C1BD022E0FFF75EF9DFF802
:104AB000DC06002141700B21017019E0FFF76BF952
:104AC000DFF8C806002141700C21017010E0FFF7EB
:104AD00077F9DFF8B806002141700D21017007E079
:104AE000FFF792F9DFF8A406002141700E21017052
:104AF0000020DFF8981648800520BDE8104035E119
:104B000070B586B004460E4622460FF29470FFF749
:104B100033FE301B0A2190FBF1F5ADB2801DADF8DC
:104B2000000001A80FF2FC711422FDF701FCBDF892
:104B30000000C01CADF80700DFF85C660120307093
:104B4000022200A9701CFDF7E3FB0120F070307118
:104B5000372070710620B0712846000AF071357256
:104B6000BDF80000C21EDFF82406201800F108017D
:104B700006F10900FDF7CCFB314601A802F0CCFD9F
:104B800006B070BD3EB5054614460A4629460FF2EA
:104B90002C70FFF7F1FD0020ADF80800102D40F05B
:104BA000DF80207801283BD1E07C217D090401EBE6
:104BB0000060617D00EB0120A17D40180190E07B49
:104BC000217C090401EB0060617C00EB0120A17CE9
:104BD00040180090E07A217B090401EB0060617BC2
:104BE00000EB0120A17B4318E079217A090401EB55
:104BF0000060617A00EB0120A17A4218E078217907
:104C0000090401EB0060617900EB0120A1794118F2
:104C10006078A47814EB002080B2FFF781FE9FE05B
:104C2000022807D16078A17811EB002080B2FFF74D
:104C300097FE95E0032807D16078A17811EB00205A
:104C400080B2FFF7A1FE8BE0042812D1E279E07870
:104C50002179090401EB0060617900EB0120A17961
:104C600041186078A37813EB002080B2FFF7CBFEE9
:104C700076E005280BD1DFF81405012141700821E9
:104C8000017000214180052000F070F868E00628DE
:104C90000DD161796078A278120402EB0060E278AD
:104CA00000EB022022798018FFF7C5FE58E00728A4
:104CB00002D1FFF7D8FE53E0082803D16078FFF750
:104CC000E4FE4DE010284BD194F90100012802D0F8
:104CD000102822D041E0E07A217B090401EB00603A
:104CE000617B00EB0120A17B4318E079217A090464
:104CF00001EB0060617A00EB0120A17A4218E078B4
:104D00002179090401EB0060617900EB0120A179B0
:104D10004118A078C046C0461FE094F9020001285F
:104D20001BD10222E11C02A8FDF7F2FABDF808002F
:104D3000BDF90810C1F3072141EA0020ADF80800D1
:104D4000BDF90800FFF7A9F8DFF840040021417021
:104D500011210170BDF808104180052000F006F80F
:104D60000120DFF82814487100203EBD2DE9F043F2
:104D700087B004460020ADF80400DFF81054E8883E
:104D80000646012C0AD0C0F0AD81032C74D0C0F0CF
:104D90005A81052C00F03A8177D3A3E1DFF8FC7348
:104DA0000121C155411CE980DFF8F4030288120A91
:104DB00089B2CA55491CE980028889B2CA55491C82
:104DC000E980827889B2CA55491CE9804268121686
:104DD00089B2CA5501F10109A5F806904168091484
:104DE0001FFA89F909F8071009F10109A5F80690D9
:104DF000416809121FFA89F909F8071009F1010938
:104E0000A5F8069041681FFA89F909F8071009F119
:104E10000102EA808168091692B2D155521CEA80DB
:104E20008168091492B2D155521CEA808168091236
:104E300092B2D155521CEA80816892B2D155521C6F
:104E4000EA80C168090E92B2D155511CE980C2684E
:104E5000120C89B2CA55491CE980C268120A89B28B
:104E6000CA55491CE980C06889B2C855481CE88009
:104E70001020ADF8040035E10321C84A8154401CDC
:104E8000E8800120ADF804002CE1C44F0421C15595
:104E9000411CE980DFF80C83D8F80000000E89B2CD
:104EA000C855491CE980D8F80000000C89B2C855E3
:104EB000491CE980D8F80000000A89B2C855491C8D
:104EC000E980D8F8000089B2C85501F10109A5F8B8
:104ED0000690D8E90201382203F0BAFD1FFA89F9D9
:104EE00009F8070009F10109A5F80690D8E90201BF
:104EF000302203F0ADFD1FFA89F909F8070009F126
:104F00000109A5F80690D8E90201282203F0A0FDC6
:104F10001FFA89F909F8070009F10102EA80D8E9C6
:104F2000020192B2D155521CEA80D8E90201000E6A
:104F300092B2D055521CEA80D8E90201000C92B21C
:104F4000D055521CEA80D8E9020180B2000A92B220
:104F5000D055521CEA80D8E9020192B2D055511CBA
:104F6000E980D8F81000001689B2C855491CE980BC
:104F7000D8F81000001489B2C855491CE980D8F847
:104F80001000001289B2C855481CE880D8F81010EB
:104F900080B2C155401CE880D8F81410091680B2C0
:104FA000C155401CE880D8F81410091480B2C155CE
:104FB000401CE880D8F81410091280B2C155401C7A
:104FC000E880D8F8141080B2C155401CE880D8F8A9
:104FD0001810090E80B2C155401CE880D8F818108E
:104FE000090C80B2C155401CE880D8F81810090A95
:104FF00080B2C155401CE880D8F8181080B2C15565
:10500000401CE8801920ADF804006BE0634F0521D7
:10501000C155411CE980287889B2C855491CE980EE
:10502000687889B2C855491CE9806888020A89B243
:10503000CA55491CE98089B2C855481CE88005203A
:10504000ADF804004EE0554F0221C155411CE980E6
:1050500055480288120A89B2CA55491CE98002885B
:1050600089B2CA55491CE9804268120E89B2CA55F4
:10507000491CE9804268120C89B2CA5501F1010944
:10508000A5F806904168090A1FFA89F909F807107E
:1050900009F10109A5F8069041681FFA89F909F894
:1050A000071009F10109A5F806908168090E1FFA99
:1050B00089F909F8071009F10102EA808168090CF1
:1050C00092B2D155521CEA808168090A92B2D15538
:1050D000521CEA80806892B2D055501CE8800B20A8
:1050E000ADF804000096BDF80430EA8821460FF2BE
:1050F000E410FFF741FB01206871E888B0F5807F7C
:105100002DDC264FF15D0FF20820FFF735FBBDF8CF
:105110000400C01CADF8040002A80FF21C211422E8
:10512000FDF706F9BDF80400C01CADF80B001A4CE1
:1051300001202070022201A9601CFDF7E9F801207E
:10514000E070207137206071BDF80400C21EF119B3
:10515000A01DFDF7DDF8214602A802F0DDFA07B038
:10516000BDE8F0830C4901F5827202625E22027092
:105170001422C2600122027482820022C2828161F2
:105180001046704700000000148703000C870300DE
:10519000E4A90300E8A903002433030018A10300D5
:1051A00060AD0300D0AB030098AB0300534C432029
:1051B0006F70656E0A000000534C4320636C6F7380
:1051C000650A0000736C632053656E644269674D25
:1051D0005347202564000000534C432067656F66E9
:1051E000656E6365206164642069643A25750A0010
:1051F000534C432067656F66656E63652072656D0D
:105200006F76650A00000000534C432067656F66A7
:10521000656E63652070617573652F726573756D5A
:10522000652025750A000000534C432067656F66B2
:10523000656E6365207570646174652069643A25E4
:1052400075207261643A2575207374733A25750A66
:1052500000000000534C432073746172742041526B
:10526000206D696E5F643A2575206D696E5F743AD2
:1052700025750A00534C432073746F702041520A05
:1052800000000000534C432063757272656E7420F9
:105290006C6F636174696F6E203A2025750A000097
:1052A000736C632053656E644269674D53472025D4
:1052B000642C2073746172743A256400736C6320EB
:1052C0007365742076616C756520256420256420E3
:1052D0000A000000534C432063625F747970653AA2
:1052E000256420675F73656E64696E675F636E74C3
:1052F0003A256420636F756E743A25642073746177
:1053000072745F706F696E743A2564200A00000041
:10531000534C4320675F627566666572203A2025AC
:105320006400000005000000000000000000000014
:105330000000000000000000050000000000000068
:1053400000000000000000000000000010B5002276
:105350004FF4A871DFF87C09FCF7ACFFDFF878495F
:10536000002218212046FCF7A5FF0020606210BD36
:105370000020704710B5DFF8644900F079FCA060A8
:10538000002204F11C012A2001F0E1FA002801D0DA
:10539000032010BD002204F11C01632001F0D7FAA4
:1053A000002801D0032010BD002204F11C010120BF
:1053B00001F0CDFA002801D0032010BD002010BD5F
:1053C00010B5DFF81849002204F11C012A2001F071
:1053D00014FB002801D0032010BD002204F11C01A1
:1053E000632001F00AFB002801D0032010BD002239
:1053F00004F11C01012001F000FB002801D0032072
:1054000010BDFFF7A3FF002010BD000038B52DED43
:10541000028B84B09FEDB68ADFEDB58ADFF8BC4819
:10542000A0693C30A0612068022801D0032809D17E
:10543000DFF8AC080069216981420CDA401A08EEF5
:10544000100A08E0042802D1DFEDB78A03E005283E
:1054500001D1DFEDB68ADFF8880800692061DFF846
:105460007458B8EE480AD5ED530A30EE200A30EEF3
:10547000280A85ED530ADFEDAE0AB4EE600AF1EEBC
:1054800010FA09DBDFEDCF0A30EE200A85ED530A72
:105490000FF66400FFF770F9A06947F230518842B7
:1054A00014DBD5F84C0100F0CDFCCDE9020118EE7B
:1054B000900A00F0C7FCCDE9000118EE102A21681F
:1054C0000FF64800FFF758F90020A06104B0BDECCA
:1054D000028B31BD70B500F0B1F9FFF797FF00F016
:1054E0009BF900281BD0DFF8EC4704F5C470456831
:1054F000D4F88861701B03F0BAFA03462A46314695
:105500000FF63800FFF738F90020A060DFF8CC076D
:10551000DFF8CC171822FCF70BFF002070BD00F05D
:10552000E9F8002805D0DFF8B007416A41F004012E
:10553000416200F0FFF8002805D0DFF89C07416ABF
:1055400041F00101416200F019F9002805D0DFF8AF
:105550008807416A41F00201416200F035F90028F4
:1055600005D0DFF87407416A41F00801416200F09C
:1055700026F800F046F800F0B1F800F03DFA0020FF
:1055800070BD80B500F092FA002002BD3EB500A9C2
:1055900000231C461D4638C1002A00D100AA342829
:1055A00002D0352805D008E00621104600F014FB93
:1055B00003E00621104600F03DFB20463EBD38B515
:1055C000DFF81047DFF8100790F8240000F01B0008
:1055D00084F8400100F04CFB009004F241150422D5
:1055E00000A92846FCF794FE0421284600F032FB6F
:1055F00004F5A070DFF8E8160A6842714968817105
:1056000031BDFEB50026DFF8D446DFF8D456A868D1
:10561000A168401A00F08FFA029020682968884239
:1056200005D0029841F28831884200DB01260298B9
:10563000DFF8B016884200DB0126DFF89C0690F9FF
:105640001210002906D000218174416A41F0040142
:1056500041620126002E40D0DFF87866B06800EB8A
:1056600080018F1D00280BD1042204F1080106F1EE
:105670000D00FCF74DFE042106F10D0000F0EAFAE2
:10568000B068401CB06070742068B9190873781C49
:10569000471C0299DFF85026914203DB0221801952
:1056A000017302E0002180190173042202A9B819D4
:1056B0000C30FCF72DFE0321B8190C3000F0CAFAAB
:1056C00002980190A86800902B68A26821680FF2E8
:1056D0009060FFF751F8A868A060F7BDDFF8FC05FF
:1056E000DFF8FC154A6842600968016070470000F5
:1056F00000000000DFF8DC05DFF8DC1591F9001090
:10570000012903DA002181600846704781683B293E
:1057100005DA012905DB90F98401002801D0012078
:1057200070470020704700006ABCD43FFA7E2A3FD1
:105730004154094BDFF89C0590F98401002819D0E9
:10574000DFF8940590F90810012913DB90F9131084
:10575000012903D10021C17401207047DFF88005C1
:10576000DFF878150A6803689A4205D149684068ED
:10577000814201D10020704701207047DFF85805B1
:10578000DFF85C15DFF8542512680B689A4201D0E7
:105790000022027490F91020002A01D000207047E6
:1057A0001A46121892F90120012A01DA00207047E6
:1057B0004968012903DB0121017408467047002074
:1057C00070470000405409CB10B5DFF80C45DFF8F6
:1057D0001005DFF808150A6803689A4201D0002214
:1057E000627494F91120002A01D0002010BD0A68CB
:1057F000121992F90920012A01DA002010BD8068EF
:105800008968401A00F097F96169884202DB01203B
:10581000607410BD002010BD80B5DFF8B804D0F86A
:105820008C11D0F88801081A03F021F942F21171A5
:10583000884201DB012002BD002002BD30B593B0DB
:1058400001A803F051FA00A804F046FDFEF7D5FDCB
:10585000012801D1012000E00020DFF8784484F81D
:105860008401D4F85001401C6FF0704190FBF1F1BD
:10587000C1EB0171401AC4F8500100F0F9F9DFF8EA
:105880006054A86068619DF80000042805D10420D8
:1058900028609DF80100686021E0BDF8060002283C
:1058A00010DB042802DB0320286001E002202860CE
:1058B000BDF80E0068609DED0F0ABDEEC00A85EDD3
:1058C000040A0CE0D4F85001042806DB012028600B
:1058D00001A800F013F8686001E00020286000F0E3
:1058E000C7F9D4F8501101EBD1725210A1EB42016B
:1058F00004EB8101C1F8880113B030BD2DE9F041FE
:1059000086B00446DFF8CC53D5F8506100A81421C6
:10591000FCF746FD00A9012004F068FE0C20711080
:1059200006EB91718910A6EB810100FB0151009AF1
:10593000C1F8542101F5AA71019A4A60029A8A605D
:105940000021324600E0521E331F934239DAD31C45
:105950005F1003EB9777BF10A3EB87035F1C4FEA41
:10596000670C07EB9C7C4FEAAC0CA7EB8C074FF065
:10597000000C0BE030EE600ADFEDAD0AB4EE600A19
:10598000F1EE10FA00DB01210CF1010CBCF1030F68
:10599000D9DA00FB075E0EEB8C08D8ED550A00FB48
:1059A000035E0EEB8C0E9EED550A9EED551A31EE00
:1059B000601AB5EE401AF1EE10FADBD530EEC00AEF
:1059C000DAE7C648C64A012901D1516941615169E6
:1059D0004069081A00F0AFF8C349884201DB022091
:1059E00007E06089022801D0012801D1012000E0F0
:1059F000002006B0BDE8F08170B5B74C606A10F0C9
:105A00001B0F23D0B34E00F01B0086F8400106F5B3
:105A1000A071E1610720608341202083B34D012004
:105A2000287068701A20A8700722E81CFCF770FC28
:105A3000606A20F01B006062608BC01C216AC88213
:105A400029464120BDE8704004F010BD10F0240F3D
:105A50002BD0A04E00F02400307306F10C00E06162
:105A6000B06800EB8000801D6083412020839F4D43
:105A70000120287068701A20A870628B06F10C0152
:105A8000E81CFCF745FCB1680FF2FC20FEF774FE41
:105A900000206062B060608BC01C216AC882294609
:105AA0004120BDE8704004F0E1BC70BD10B4012895
:105AB00021D18A49884890F908200B6814461C4176
:105AC000E20703D5426A42F0010242621A46121806
:105AD00092F90120012A03DB426A42F0020242628B
